{
  "_format": "hh-sol-artifact-1",
  "contractName": "FlyNFT",
  "sourceName": "contracts/flynft.sol",
  "abi": [
    {
      "inputs": [
        {
          "internalType": "uint256",
          "name": "supply",
          "type": "uint256"
        },
        {
          "internalType": "string",
          "name": "baseurl",
          "type": "string"
        }
      ],
      "stateMutability": "nonpayable",
      "type": "constructor"
    },
    {
      "anonymous": false,
      "inputs": [
        {
          "indexed": true,
          "internalType": "address",
          "name": "owner",
          "type": "address"
        },
        {
          "indexed": true,
          "internalType": "address",
          "name": "approved",
          "type": "address"
        },
        {
          "indexed": true,
          "internalType": "uint256",
          "name": "tokenId",
          "type": "uint256"
        }
      ],
      "name": "Approval",
      "type": "event"
    },
    {
      "anonymous": false,
      "inputs": [
        {
          "indexed": true,
          "internalType": "address",
          "name": "owner",
          "type": "address"
        },
        {
          "indexed": true,
          "internalType": "address",
          "name": "operator",
          "type": "address"
        },
        {
          "indexed": false,
          "internalType": "bool",
          "name": "approved",
          "type": "bool"
        }
      ],
      "name": "ApprovalForAll",
      "type": "event"
    },
    {
      "anonymous": false,
      "inputs": [
        {
          "indexed": true,
          "internalType": "address",
          "name": "previousOwner",
          "type": "address"
        },
        {
          "indexed": true,
          "internalType": "address",
          "name": "newOwner",
          "type": "address"
        }
      ],
      "name": "OwnershipTransferred",
      "type": "event"
    },
    {
      "anonymous": false,
      "inputs": [
        {
          "indexed": true,
          "internalType": "address",
          "name": "from",
          "type": "address"
        },
        {
          "indexed": true,
          "internalType": "address",
          "name": "to",
          "type": "address"
        },
        {
          "indexed": true,
          "internalType": "uint256",
          "name": "tokenId",
          "type": "uint256"
        }
      ],
      "name": "Transfer",
      "type": "event"
    },
    {
      "inputs": [
        {
          "internalType": "address",
          "name": "to",
          "type": "address"
        },
        {
          "internalType": "uint256",
          "name": "tokenId",
          "type": "uint256"
        }
      ],
      "name": "approve",
      "outputs": [],
      "stateMutability": "nonpayable",
      "type": "function"
    },
    {
      "inputs": [
        {
          "internalType": "address",
          "name": "owner",
          "type": "address"
        }
      ],
      "name": "balanceOf",
      "outputs": [
        {
          "internalType": "uint256",
          "name": "",
          "type": "uint256"
        }
      ],
      "stateMutability": "view",
      "type": "function"
    },
    {
      "inputs": [
        {
          "internalType": "uint256",
          "name": "tokenId",
          "type": "uint256"
        }
      ],
      "name": "getApproved",
      "outputs": [
        {
          "internalType": "address",
          "name": "",
          "type": "address"
        }
      ],
      "stateMutability": "view",
      "type": "function"
    },
    {
      "inputs": [
        {
          "internalType": "address",
          "name": "owner",
          "type": "address"
        },
        {
          "internalType": "address",
          "name": "operator",
          "type": "address"
        }
      ],
      "name": "isApprovedForAll",
      "outputs": [
        {
          "internalType": "bool",
          "name": "",
          "type": "bool"
        }
      ],
      "stateMutability": "view",
      "type": "function"
    },
    {
      "inputs": [],
      "name": "maxPerWallet",
      "outputs": [
        {
          "internalType": "uint256",
          "name": "",
          "type": "uint256"
        }
      ],
      "stateMutability": "view",
      "type": "function"
    },
    {
      "inputs": [],
      "name": "maxSupply",
      "outputs": [
        {
          "internalType": "uint256",
          "name": "",
          "type": "uint256"
        }
      ],
      "stateMutability": "view",
      "type": "function"
    },
    {
      "inputs": [],
      "name": "mdExtension",
      "outputs": [
        {
          "internalType": "string",
          "name": "",
          "type": "string"
        }
      ],
      "stateMutability": "view",
      "type": "function"
    },
    {
      "inputs": [],
      "name": "mint",
      "outputs": [],
      "stateMutability": "payable",
      "type": "function"
    },
    {
      "inputs": [],
      "name": "minted",
      "outputs": [
        {
          "internalType": "uint256",
          "name": "",
          "type": "uint256"
        }
      ],
      "stateMutability": "view",
      "type": "function"
    },
    {
      "inputs": [],
      "name": "name",
      "outputs": [
        {
          "internalType": "string",
          "name": "",
          "type": "string"
        }
      ],
      "stateMutability": "view",
      "type": "function"
    },
    {
      "inputs": [],
      "name": "owner",
      "outputs": [
        {
          "internalType": "address",
          "name": "",
          "type": "address"
        }
      ],
      "stateMutability": "view",
      "type": "function"
    },
    {
      "inputs": [
        {
          "internalType": "uint256",
          "name": "tokenId",
          "type": "uint256"
        }
      ],
      "name": "ownerOf",
      "outputs": [
        {
          "internalType": "address",
          "name": "",
          "type": "address"
        }
      ],
      "stateMutability": "view",
      "type": "function"
    },
    {
      "inputs": [],
      "name": "price",
      "outputs": [
        {
          "internalType": "uint256",
          "name": "",
          "type": "uint256"
        }
      ],
      "stateMutability": "view",
      "type": "function"
    },
    {
      "inputs": [],
      "name": "renounceOwnership",
      "outputs": [],
      "stateMutability": "nonpayable",
      "type": "function"
    },
    {
      "inputs": [
        {
          "internalType": "address",
          "name": "from",
          "type": "address"
        },
        {
          "internalType": "address",
          "name": "to",
          "type": "address"
        },
        {
          "internalType": "uint256",
          "name": "tokenId",
          "type": "uint256"
        }
      ],
      "name": "safeTransferFrom",
      "outputs": [],
      "stateMutability": "nonpayable",
      "type": "function"
    },
    {
      "inputs": [
        {
          "internalType": "address",
          "name": "from",
          "type": "address"
        },
        {
          "internalType": "address",
          "name": "to",
          "type": "address"
        },
        {
          "internalType": "uint256",
          "name": "tokenId",
          "type": "uint256"
        },
        {
          "internalType": "bytes",
          "name": "data",
          "type": "bytes"
        }
      ],
      "name": "safeTransferFrom",
      "outputs": [],
      "stateMutability": "nonpayable",
      "type": "function"
    },
    {
      "inputs": [
        {
          "internalType": "address",
          "name": "operator",
          "type": "address"
        },
        {
          "internalType": "bool",
          "name": "approved",
          "type": "bool"
        }
      ],
      "name": "setApprovalForAll",
      "outputs": [],
      "stateMutability": "nonpayable",
      "type": "function"
    },
    {
      "inputs": [
        {
          "internalType": "bytes4",
          "name": "interfaceId",
          "type": "bytes4"
        }
      ],
      "name": "supportsInterface",
      "outputs": [
        {
          "internalType": "bool",
          "name": "",
          "type": "bool"
        }
      ],
      "stateMutability": "view",
      "type": "function"
    },
    {
      "inputs": [],
      "name": "symbol",
      "outputs": [
        {
          "internalType": "string",
          "name": "",
          "type": "string"
        }
      ],
      "stateMutability": "view",
      "type": "function"
    },
    {
      "inputs": [
        {
          "internalType": "uint256",
          "name": "tokenId",
          "type": "uint256"
        }
      ],
      "name": "tokenURI",
      "outputs": [
        {
          "internalType": "string",
          "name": "",
          "type": "string"
        }
      ],
      "stateMutability": "view",
      "type": "function"
    },
    {
      "inputs": [
        {
          "internalType": "address",
          "name": "from",
          "type": "address"
        },
        {
          "internalType": "address",
          "name": "to",
          "type": "address"
        },
        {
          "internalType": "uint256",
          "name": "tokenId",
          "type": "uint256"
        }
      ],
      "name": "transferFrom",
      "outputs": [],
      "stateMutability": "nonpayable",
      "type": "function"
    },
    {
      "inputs": [
        {
          "internalType": "address",
          "name": "newOwner",
          "type": "address"
        }
      ],
      "name": "transferOwnership",
      "outputs": [],
      "stateMutability": "nonpayable",
      "type": "function"
    },
    {
      "inputs": [
        {
          "internalType": "address",
          "name": "to",
          "type": "address"
        }
      ],
      "name": "wdraw",
      "outputs": [],
      "stateMutability": "nonpayable",
      "type": "function"
    }
  ],
  "bytecode": "0x6080604052600160085566038d7ea4c680006009556001600a556000600b556040518060400160405280600581526020017f2e6a736f6e000000000000000000000000000000000000000000000000000000815250600c9081620000649190620004b1565b503480156200007257600080fd5b50604051620038123803806200381283398181016040528101906200009891906200072d565b6040518060400160405280600d81526020017f4d6167696320436972636c6573000000000000000000000000000000000000008152506040518060400160405280600681526020017f4d434a504547000000000000000000000000000000000000000000000000000081525062000124620001186200016b60201b60201c565b6200017360201b60201c565b8160019081620001359190620004b1565b508060029081620001479190620004b1565b5050508160078190555080600d9081620001629190620004b1565b50505062000793565b600033905090565b60008060009054906101000a900473ffffffffffffffffffffffffffffffffffffffff169050816000806101000a81548173ffffffffffffffffffffffffffffffffffffffff021916908373ffffffffffffffffffffffffffffffffffffffff1602179055508173ffffffffffffffffffffffffffffffffffffffff168173ffffffffffffffffffffffffffffffffffffffff167f8be0079c531659141344cd1fd0a4f28419497f9722a3daafe3b4186f6b6457e060405160405180910390a35050565b600081519050919050565b7f4e487b7100000000000000000000000000000000000000000000000000000000600052604160045260246000fd5b7f4e487b7100000000000000000000000000000000000000000000000000000000600052602260045260246000fd5b60006002820490506001821680620002b957607f821691505b602082108103620002cf57620002ce62000271565b5b50919050565b60008190508160005260206000209050919050565b60006020601f8301049050919050565b600082821b905092915050565b600060088302620003397fffffffffffffffffffffffffffffffffffffffffffffffffffffffffffffffff82620002fa565b620003458683620002fa565b95508019841693508086168417925050509392505050565b6000819050919050565b6000819050919050565b6000620003926200038c62000386846200035d565b62000367565b6200035d565b9050919050565b6000819050919050565b620003ae8362000371565b620003c6620003bd8262000399565b84845462000307565b825550505050565b600090565b620003dd620003ce565b620003ea818484620003a3565b505050565b5b81811015620004125762000406600082620003d3565b600181019050620003f0565b5050565b601f82111562000461576200042b81620002d5565b6200043684620002ea565b8101602085101562000446578190505b6200045e6200045585620002ea565b830182620003ef565b50505b505050565b600082821c905092915050565b6000620004866000198460080262000466565b1980831691505092915050565b6000620004a1838362000473565b9150826002028217905092915050565b620004bc8262000237565b67ffffffffffffffff811115620004d857620004d762000242565b5b620004e48254620002a0565b620004f182828562000416565b600060209050601f83116001811462000529576000841562000514578287015190505b62000520858262000493565b86555062000590565b601f1984166200053986620002d5565b60005b8281101562000563578489015182556001820191506020850194506020810190506200053c565b868310156200058357848901516200057f601f89168262000473565b8355505b6001600288020188555050505b505050505050565b6000604051905090565b600080fd5b600080fd5b620005b7816200035d565b8114620005c357600080fd5b50565b600081519050620005d781620005ac565b92915050565b600080fd5b600080fd5b6000601f19601f8301169050919050565b6200060382620005e7565b810181811067ffffffffffffffff8211171562000625576200062462000242565b5b80604052505050565b60006200063a62000598565b9050620006488282620005f8565b919050565b600067ffffffffffffffff8211156200066b576200066a62000242565b5b6200067682620005e7565b9050602081019050919050565b60005b83811015620006a357808201518184015260208101905062000686565b60008484015250505050565b6000620006c6620006c0846200064d565b6200062e565b905082815260208101848484011115620006e557620006e4620005e2565b5b620006f284828562000683565b509392505050565b600082601f830112620007125762000711620005dd565b5b815162000724848260208601620006af565b91505092915050565b60008060408385031215620007475762000746620005a2565b5b60006200075785828601620005c6565b925050602083015167ffffffffffffffff8111156200077b576200077a620005a7565b5b6200078985828601620006fa565b9150509250929050565b61306f80620007a36000396000f3fe6080604052600436106101405760003560e01c8063715018a6116100b6578063b88d4fde1161006f578063b88d4fde1461042b578063c1c139c214610454578063c87b56dd1461047d578063d5abeb01146104ba578063e985e9c5146104e5578063f2fde38b1461052257610140565b8063715018a61461033f5780637ba99ac3146103565780638da5cb5b1461038157806395d89b41146103ac578063a035b1fe146103d7578063a22cb4651461040257610140565b806323b872dd1161010857806323b872dd1461021d57806342842e0e14610246578063453c23101461026f5780634f02c4201461029a5780636352211e146102c557806370a082311461030257610140565b806301ffc9a71461014557806306fdde0314610182578063081812fc146101ad578063095ea7b3146101ea5780631249c58b14610213575b600080fd5b34801561015157600080fd5b5061016c60048036038101906101679190611fc7565b61054b565b604051610179919061200f565b60405180910390f35b34801561018e57600080fd5b5061019761062d565b6040516101a491906120ba565b60405180910390f35b3480156101b957600080fd5b506101d460048036038101906101cf9190612112565b6106bf565b6040516101e19190612180565b60405180910390f35b3480156101f657600080fd5b50610211600480360381019061020c91906121c7565b610705565b005b61021b61081c565b005b34801561022957600080fd5b50610244600480360381019061023f9190612207565b61093a565b005b34801561025257600080fd5b5061026d60048036038101906102689190612207565b61099a565b005b34801561027b57600080fd5b506102846109ba565b6040516102919190612269565b60405180910390f35b3480156102a657600080fd5b506102af6109c0565b6040516102bc9190612269565b60405180910390f35b3480156102d157600080fd5b506102ec60048036038101906102e79190612112565b6109c6565b6040516102f99190612180565b60405180910390f35b34801561030e57600080fd5b5061032960048036038101906103249190612284565b610a4c565b6040516103369190612269565b60405180910390f35b34801561034b57600080fd5b50610354610b03565b005b34801561036257600080fd5b5061036b610b17565b60405161037891906120ba565b60405180910390f35b34801561038d57600080fd5b50610396610ba5565b6040516103a39190612180565b60405180910390f35b3480156103b857600080fd5b506103c1610bce565b6040516103ce91906120ba565b60405180910390f35b3480156103e357600080fd5b506103ec610c60565b6040516103f99190612269565b60405180910390f35b34801561040e57600080fd5b50610429600480360381019061042491906122dd565b610c66565b005b34801561043757600080fd5b50610452600480360381019061044d9190612452565b610c7c565b005b34801561046057600080fd5b5061047b60048036038101906104769190612284565b610cde565b005b34801561048957600080fd5b506104a4600480360381019061049f9190612112565b610ce9565b6040516104b191906120ba565b60405180910390f35b3480156104c657600080fd5b506104cf610d93565b6040516104dc9190612269565b60405180910390f35b3480156104f157600080fd5b5061050c600480360381019061050791906124d5565b610d99565b604051610519919061200f565b60405180910390f35b34801561052e57600080fd5b5061054960048036038101906105449190612284565b610e2d565b005b60007f80ac58cd000000000000000000000000000000000000000000000000000000007bffffffffffffffffffffffffffffffffffffffffffffffffffffffff1916827bffffffffffffffffffffffffffffffffffffffffffffffffffffffff1916148061061657507f5b5e139f000000000000000000000000000000000000000000000000000000007bffffffffffffffffffffffffffffffffffffffffffffffffffffffff1916827bffffffffffffffffffffffffffffffffffffffffffffffffffffffff1916145b80610626575061062582610eb0565b5b9050919050565b60606001805461063c90612544565b80601f016020809104026020016040519081016040528092919081815260200182805461066890612544565b80156106b55780601f1061068a576101008083540402835291602001916106b5565b820191906000526020600020905b81548152906001019060200180831161069857829003601f168201915b5050505050905090565b60006106ca82610f1a565b6005600083815260200190815260200160002060009054906101000a900473ffffffffffffffffffffffffffffffffffffffff169050919050565b6000610710826109c6565b90508073ffffffffffffffffffffffffffffffffffffffff168373ffffffffffffffffffffffffffffffffffffffff1603610780576040517f08c379a0000000000000000000000000000000000000000000000000000000008152600401610777906125e7565b60405180910390fd5b8073ffffffffffffffffffffffffffffffffffffffff1661079f610f65565b73ffffffffffffffffffffffffffffffffffffffff1614806107ce57506107cd816107c8610f65565b610d99565b5b61080d576040517f08c379a000000000000000000000000000000000000000000000000000000000815260040161080490612679565b60405180910390fd5b6108178383610f6d565b505050565b600754600a541115610863576040517f08c379a000000000000000000000000000000000000000000000000000000000815260040161085a906126e5565b60405180910390fd5b600061086e33610a4c565b146108ae576040517f08c379a00000000000000000000000000000000000000000000000000000000081526004016108a590612751565b60405180910390fd5b6108b6610ba5565b73ffffffffffffffffffffffffffffffffffffffff163373ffffffffffffffffffffffffffffffffffffffff16146108f8576009543410156108f757600080fd5b5b61090433600a54611026565b6001600a600082825461091791906127a0565b925050819055506001600b600082825461093191906127a0565b92505081905550565b61094b610945610f65565b82611044565b61098a576040517f08c379a000000000000000000000000000000000000000000000000000000000815260040161098190612846565b60405180910390fd5b6109958383836110d9565b505050565b6109b583838360405180602001604052806000815250610c7c565b505050565b60085481565b600b5481565b6000806109d2836113d2565b9050600073ffffffffffffffffffffffffffffffffffffffff168173ffffffffffffffffffffffffffffffffffffffff1603610a43576040517f08c379a0000000000000000000000000000000000000000000000000000000008152600401610a3a906128b2565b60405180910390fd5b80915050919050565b60008073ffffffffffffffffffffffffffffffffffffffff168273ffffffffffffffffffffffffffffffffffffffff1603610abc576040517f08c379a0000000000000000000000000000000000000000000000000000000008152600401610ab390612944565b60405180910390fd5b600460008373ffffffffffffffffffffffffffffffffffffffff1673ffffffffffffffffffffffffffffffffffffffff168152602001908152602001600020549050919050565b610b0b61140f565b610b15600061148d565b565b600c8054610b2490612544565b80601f0160208091040260200160405190810160405280929190818152602001828054610b5090612544565b8015610b9d5780601f10610b7257610100808354040283529160200191610b9d565b820191906000526020600020905b815481529060010190602001808311610b8057829003601f168201915b505050505081565b60008060009054906101000a900473ffffffffffffffffffffffffffffffffffffffff16905090565b606060028054610bdd90612544565b80601f0160208091040260200160405190810160405280929190818152602001828054610c0990612544565b8015610c565780601f10610c2b57610100808354040283529160200191610c56565b820191906000526020600020905b815481529060010190602001808311610c3957829003601f168201915b5050505050905090565b60095481565b610c78610c71610f65565b8383611551565b5050565b610c8d610c87610f65565b83611044565b610ccc576040517f08c379a0000000000000000000000000000000000000000000000000000000008152600401610cc390612846565b60405180910390fd5b610cd8848484846116bd565b50505050565b610ce661140f565b50565b6060610cf482611719565b610d33576040517f08c379a0000000000000000000000000000000000000000000000000000000008152600401610d2a906129d6565b60405180910390fd5b6000610d3d61175a565b90506000815111610d5d5760405180602001604052806000815250610d8b565b80610d67846117ec565b600c604051602001610d7b93929190612aca565b6040516020818303038152906040525b915050919050565b60075481565b6000600660008473ffffffffffffffffffffffffffffffffffffffff1673ffffffffffffffffffffffffffffffffffffffff16815260200190815260200160002060008373ffffffffffffffffffffffffffffffffffffffff1673ffffffffffffffffffffffffffffffffffffffff16815260200190815260200160002060009054906101000a900460ff16905092915050565b610e3561140f565b600073ffffffffffffffffffffffffffffffffffffffff168173ffffffffffffffffffffffffffffffffffffffff1603610ea4576040517f08c379a0000000000000000000000000000000000000000000000000000000008152600401610e9b90612b6d565b60405180910390fd5b610ead8161148d565b50565b60007f01ffc9a7000000000000000000000000000000000000000000000000000000007bffffffffffffffffffffffffffffffffffffffffffffffffffffffff1916827bffffffffffffffffffffffffffffffffffffffffffffffffffffffff1916149050919050565b610f2381611719565b610f62576040517f08c379a0000000000000000000000000000000000000000000000000000000008152600401610f59906128b2565b60405180910390fd5b50565b600033905090565b816005600083815260200190815260200160002060006101000a81548173ffffffffffffffffffffffffffffffffffffffff021916908373ffffffffffffffffffffffffffffffffffffffff160217905550808273ffffffffffffffffffffffffffffffffffffffff16610fe0836109c6565b73ffffffffffffffffffffffffffffffffffffffff167f8c5be1e5ebec7d5bd14f71427d1e84f3dd0314c0f7b2291e5b200ac8c7c3b92560405160405180910390a45050565b6110408282604051806020016040528060008152506118ba565b5050565b600080611050836109c6565b90508073ffffffffffffffffffffffffffffffffffffffff168473ffffffffffffffffffffffffffffffffffffffff16148061109257506110918185610d99565b5b806110d057508373ffffffffffffffffffffffffffffffffffffffff166110b8846106bf565b73ffffffffffffffffffffffffffffffffffffffff16145b91505092915050565b8273ffffffffffffffffffffffffffffffffffffffff166110f9826109c6565b73ffffffffffffffffffffffffffffffffffffffff161461114f576040517f08c379a000000000000000000000000000000000000000000000000000000000815260040161114690612bff565b60405180910390fd5b600073ffffffffffffffffffffffffffffffffffffffff168273ffffffffffffffffffffffffffffffffffffffff16036111be576040517f08c379a00000000000000000000000000000000000000000000000000000000081526004016111b590612c91565b60405180910390fd5b6111cb8383836001611915565b8273ffffffffffffffffffffffffffffffffffffffff166111eb826109c6565b73ffffffffffffffffffffffffffffffffffffffff1614611241576040517f08c379a000000000000000000000000000000000000000000000000000000000815260040161123890612bff565b60405180910390fd5b6005600082815260200190815260200160002060006101000a81549073ffffffffffffffffffffffffffffffffffffffff02191690556001600460008573ffffffffffffffffffffffffffffffffffffffff1673ffffffffffffffffffffffffffffffffffffffff168152602001908152602001600020600082825403925050819055506001600460008473ffffffffffffffffffffffffffffffffffffffff1673ffffffffffffffffffffffffffffffffffffffff16815260200190815260200160002060008282540192505081905550816003600083815260200190815260200160002060006101000a81548173ffffffffffffffffffffffffffffffffffffffff021916908373ffffffffffffffffffffffffffffffffffffffff160217905550808273ffffffffffffffffffffffffffffffffffffffff168473ffffffffffffffffffffffffffffffffffffffff167fddf252ad1be2c89b69c2b068fc378daa952ba7f163c4a11628f55a4df523b3ef60405160405180910390a46113cd8383836001611a3b565b505050565b60006003600083815260200190815260200160002060009054906101000a900473ffffffffffffffffffffffffffffffffffffffff169050919050565b611417610f65565b73ffffffffffffffffffffffffffffffffffffffff16611435610ba5565b73ffffffffffffffffffffffffffffffffffffffff161461148b576040517f08c379a000000000000000000000000000000000000000000000000000000000815260040161148290612cfd565b60405180910390fd5b565b60008060009054906101000a900473ffffffffffffffffffffffffffffffffffffffff169050816000806101000a81548173ffffffffffffffffffffffffffffffffffffffff021916908373ffffffffffffffffffffffffffffffffffffffff1602179055508173ffffffffffffffffffffffffffffffffffffffff168173ffffffffffffffffffffffffffffffffffffffff167f8be0079c531659141344cd1fd0a4f28419497f9722a3daafe3b4186f6b6457e060405160405180910390a35050565b8173ffffffffffffffffffffffffffffffffffffffff168373ffffffffffffffffffffffffffffffffffffffff16036115bf576040517f08c379a00000000000000000000000000000000000000000000000000000000081526004016115b690612d69565b60405180910390fd5b80600660008573ffffffffffffffffffffffffffffffffffffffff1673ffffffffffffffffffffffffffffffffffffffff16815260200190815260200160002060008473ffffffffffffffffffffffffffffffffffffffff1673ffffffffffffffffffffffffffffffffffffffff16815260200190815260200160002060006101000a81548160ff0219169083151502179055508173ffffffffffffffffffffffffffffffffffffffff168373ffffffffffffffffffffffffffffffffffffffff167f17307eab39ab6107e8899845ad3d59bd9653f200f220920489ca2b5937696c31836040516116b0919061200f565b60405180910390a3505050565b6116c88484846110d9565b6116d484848484611a41565b611713576040517f08c379a000000000000000000000000000000000000000000000000000000000815260040161170a90612dfb565b60405180910390fd5b50505050565b60008073ffffffffffffffffffffffffffffffffffffffff1661173b836113d2565b73ffffffffffffffffffffffffffffffffffffffff1614159050919050565b6060600d805461176990612544565b80601f016020809104026020016040519081016040528092919081815260200182805461179590612544565b80156117e25780601f106117b7576101008083540402835291602001916117e2565b820191906000526020600020905b8154815290600101906020018083116117c557829003601f168201915b5050505050905090565b6060600060016117fb84611bc8565b01905060008167ffffffffffffffff81111561181a57611819612327565b5b6040519080825280601f01601f19166020018201604052801561184c5781602001600182028036833780820191505090505b509050600082602001820190505b6001156118af578080600190039150507f3031323334353637383961626364656600000000000000000000000000000000600a86061a8153600a85816118a3576118a2612e1b565b5b0494506000850361185a575b819350505050919050565b6118c48383611d1b565b6118d16000848484611a41565b611910576040517f08c379a000000000000000000000000000000000000000000000000000000000815260040161190790612dfb565b60405180910390fd5b505050565b6001811115611a3557600073ffffffffffffffffffffffffffffffffffffffff168473ffffffffffffffffffffffffffffffffffffffff16146119a95780600460008673ffffffffffffffffffffffffffffffffffffffff1673ffffffffffffffffffffffffffffffffffffffff16815260200190815260200160002060008282546119a19190612e4a565b925050819055505b600073ffffffffffffffffffffffffffffffffffffffff168373ffffffffffffffffffffffffffffffffffffffff1614611a345780600460008573ffffffffffffffffffffffffffffffffffffffff1673ffffffffffffffffffffffffffffffffffffffff1681526020019081526020016000206000828254611a2c91906127a0565b925050819055505b5b50505050565b50505050565b6000611a628473ffffffffffffffffffffffffffffffffffffffff16611f38565b15611bbb578373ffffffffffffffffffffffffffffffffffffffff1663150b7a02611a8b610f65565b8786866040518563ffffffff1660e01b8152600401611aad9493929190612ed3565b6020604051808303816000875af1925050508015611ae957506040513d601f19601f82011682018060405250810190611ae69190612f34565b60015b611b6b573d8060008114611b19576040519150601f19603f3d011682016040523d82523d6000602084013e611b1e565b606091505b506000815103611b63576040517f08c379a0000000000000000000000000000000000000000000000000000000008152600401611b5a90612dfb565b60405180910390fd5b805181602001fd5b63150b7a0260e01b7bffffffffffffffffffffffffffffffffffffffffffffffffffffffff1916817bffffffffffffffffffffffffffffffffffffffffffffffffffffffff191614915050611bc0565b600190505b949350505050565b600080600090507a184f03e93ff9f4daa797ed6e38ed64bf6a1f0100000000000000008310611c26577a184f03e93ff9f4daa797ed6e38ed64bf6a1f0100000000000000008381611c1c57611c1b612e1b565b5b0492506040810190505b6d04ee2d6d415b85acef81000000008310611c63576d04ee2d6d415b85acef81000000008381611c5957611c58612e1b565b5b0492506020810190505b662386f26fc100008310611c9257662386f26fc100008381611c8857611c87612e1b565b5b0492506010810190505b6305f5e1008310611cbb576305f5e1008381611cb157611cb0612e1b565b5b0492506008810190505b6127108310611ce0576127108381611cd657611cd5612e1b565b5b0492506004810190505b60648310611d035760648381611cf957611cf8612e1b565b5b0492506002810190505b600a8310611d12576001810190505b80915050919050565b600073ffffffffffffffffffffffffffffffffffffffff168273ffffffffffffffffffffffffffffffffffffffff1603611d8a576040517f08c379a0000000000000000000000000000000000000000000000000000000008152600401611d8190612fad565b60405180910390fd5b611d9381611719565b15611dd3576040517f08c379a0000000000000000000000000000000000000000000000000000000008152600401611dca90613019565b60405180910390fd5b611de1600083836001611915565b611dea81611719565b15611e2a576040517f08c379a0000000000000000000000000000000000000000000000000000000008152600401611e2190613019565b60405180910390fd5b6001600460008473ffffffffffffffffffffffffffffffffffffffff1673ffffffffffffffffffffffffffffffffffffffff16815260200190815260200160002060008282540192505081905550816003600083815260200190815260200160002060006101000a81548173ffffffffffffffffffffffffffffffffffffffff021916908373ffffffffffffffffffffffffffffffffffffffff160217905550808273ffffffffffffffffffffffffffffffffffffffff16600073ffffffffffffffffffffffffffffffffffffffff167fddf252ad1be2c89b69c2b068fc378daa952ba7f163c4a11628f55a4df523b3ef60405160405180910390a4611f34600083836001611a3b565b5050565b6000808273ffffffffffffffffffffffffffffffffffffffff163b119050919050565b6000604051905090565b600080fd5b600080fd5b60007fffffffff0000000000000000000000000000000000000000000000000000000082169050919050565b611fa481611f6f565b8114611faf57600080fd5b50565b600081359050611fc181611f9b565b92915050565b600060208284031215611fdd57611fdc611f65565b5b6000611feb84828501611fb2565b91505092915050565b60008115159050919050565b61200981611ff4565b82525050565b60006020820190506120246000830184612000565b92915050565b600081519050919050565b600082825260208201905092915050565b60005b83811015612064578082015181840152602081019050612049565b60008484015250505050565b6000601f19601f8301169050919050565b600061208c8261202a565b6120968185612035565b93506120a6818560208601612046565b6120af81612070565b840191505092915050565b600060208201905081810360008301526120d48184612081565b905092915050565b6000819050919050565b6120ef816120dc565b81146120fa57600080fd5b50565b60008135905061210c816120e6565b92915050565b60006020828403121561212857612127611f65565b5b6000612136848285016120fd565b91505092915050565b600073ffffffffffffffffffffffffffffffffffffffff82169050919050565b600061216a8261213f565b9050919050565b61217a8161215f565b82525050565b60006020820190506121956000830184612171565b92915050565b6121a48161215f565b81146121af57600080fd5b50565b6000813590506121c18161219b565b92915050565b600080604083850312156121de576121dd611f65565b5b60006121ec858286016121b2565b92505060206121fd858286016120fd565b9150509250929050565b6000806000606084860312156122205761221f611f65565b5b600061222e868287016121b2565b935050602061223f868287016121b2565b9250506040612250868287016120fd565b9150509250925092565b612263816120dc565b82525050565b600060208201905061227e600083018461225a565b92915050565b60006020828403121561229a57612299611f65565b5b60006122a8848285016121b2565b91505092915050565b6122ba81611ff4565b81146122c557600080fd5b50565b6000813590506122d7816122b1565b92915050565b600080604083850312156122f4576122f3611f65565b5b6000612302858286016121b2565b9250506020612313858286016122c8565b9150509250929050565b600080fd5b600080fd5b7f4e487b7100000000000000000000000000000000000000000000000000000000600052604160045260246000fd5b61235f82612070565b810181811067ffffffffffffffff8211171561237e5761237d612327565b5b80604052505050565b6000612391611f5b565b905061239d8282612356565b919050565b600067ffffffffffffffff8211156123bd576123bc612327565b5b6123c682612070565b9050602081019050919050565b82818337600083830152505050565b60006123f56123f0846123a2565b612387565b90508281526020810184848401111561241157612410612322565b5b61241c8482856123d3565b509392505050565b600082601f8301126124395761243861231d565b5b81356124498482602086016123e2565b91505092915050565b6000806000806080858703121561246c5761246b611f65565b5b600061247a878288016121b2565b945050602061248b878288016121b2565b935050604061249c878288016120fd565b925050606085013567ffffffffffffffff8111156124bd576124bc611f6a565b5b6124c987828801612424565b91505092959194509250565b600080604083850312156124ec576124eb611f65565b5b60006124fa858286016121b2565b925050602061250b858286016121b2565b9150509250929050565b7f4e487b7100000000000000000000000000000000000000000000000000000000600052602260045260246000fd5b6000600282049050600182168061255c57607f821691505b60208210810361256f5761256e612515565b5b50919050565b7f4552433732313a20617070726f76616c20746f2063757272656e74206f776e6560008201527f7200000000000000000000000000000000000000000000000000000000000000602082015250565b60006125d1602183612035565b91506125dc82612575565b604082019050919050565b60006020820190508181036000830152612600816125c4565b9050919050565b7f4552433732313a20617070726f76652063616c6c6572206973206e6f7420746f60008201527f6b656e206f776e6572206f7220617070726f76656420666f7220616c6c000000602082015250565b6000612663603d83612035565b915061266e82612607565b604082019050919050565b6000602082019050818103600083015261269281612656565b9050919050565b7f536f6c64206f7574210000000000000000000000000000000000000000000000600082015250565b60006126cf600983612035565b91506126da82612699565b602082019050919050565b600060208201905081810360008301526126fe816126c2565b9050919050565b7f4f6e6c79206f6e65207065722077616c6c657421000000000000000000000000600082015250565b600061273b601483612035565b915061274682612705565b602082019050919050565b6000602082019050818103600083015261276a8161272e565b9050919050565b7f4e487b7100000000000000000000000000000000000000000000000000000000600052601160045260246000fd5b60006127ab826120dc565b91506127b6836120dc565b92508282019050808211156127ce576127cd612771565b5b92915050565b7f4552433732313a2063616c6c6572206973206e6f7420746f6b656e206f776e6560008201527f72206f7220617070726f76656400000000000000000000000000000000000000602082015250565b6000612830602d83612035565b915061283b826127d4565b604082019050919050565b6000602082019050818103600083015261285f81612823565b9050919050565b7f4552433732313a20696e76616c696420746f6b656e2049440000000000000000600082015250565b600061289c601883612035565b91506128a782612866565b602082019050919050565b600060208201905081810360008301526128cb8161288f565b9050919050565b7f4552433732313a2061646472657373207a65726f206973206e6f74206120766160008201527f6c6964206f776e65720000000000000000000000000000000000000000000000602082015250565b600061292e602983612035565b9150612939826128d2565b604082019050919050565b6000602082019050818103600083015261295d81612921565b9050919050565b7f4552433732314d657461646174613a2055524920717565727920666f72206e6f60008201527f6e6578697374656e7420746f6b656e0000000000000000000000000000000000602082015250565b60006129c0602f83612035565b91506129cb82612964565b604082019050919050565b600060208201905081810360008301526129ef816129b3565b9050919050565b600081905092915050565b6000612a0c8261202a565b612a1681856129f6565b9350612a26818560208601612046565b80840191505092915050565b60008190508160005260206000209050919050565b60008154612a5481612544565b612a5e81866129f6565b94506001821660008114612a795760018114612a8e57612ac1565b60ff1983168652811515820286019350612ac1565b612a9785612a32565b60005b83811015612ab957815481890152600182019150602081019050612a9a565b838801955050505b50505092915050565b6000612ad68286612a01565b9150612ae28285612a01565b9150612aee8284612a47565b9150819050949350505050565b7f4f776e61626c653a206e6577206f776e657220697320746865207a65726f206160008201527f6464726573730000000000000000000000000000000000000000000000000000602082015250565b6000612b57602683612035565b9150612b6282612afb565b604082019050919050565b60006020820190508181036000830152612b8681612b4a565b9050919050565b7f4552433732313a207472616e736665722066726f6d20696e636f72726563742060008201527f6f776e6572000000000000000000000000000000000000000000000000000000602082015250565b6000612be9602583612035565b9150612bf482612b8d565b604082019050919050565b60006020820190508181036000830152612c1881612bdc565b9050919050565b7f4552433732313a207472616e7366657220746f20746865207a65726f2061646460008201527f7265737300000000000000000000000000000000000000000000000000000000602082015250565b6000612c7b602483612035565b9150612c8682612c1f565b604082019050919050565b60006020820190508181036000830152612caa81612c6e565b9050919050565b7f4f776e61626c653a2063616c6c6572206973206e6f7420746865206f776e6572600082015250565b6000612ce7602083612035565b9150612cf282612cb1565b602082019050919050565b60006020820190508181036000830152612d1681612cda565b9050919050565b7f4552433732313a20617070726f766520746f2063616c6c657200000000000000600082015250565b6000612d53601983612035565b9150612d5e82612d1d565b602082019050919050565b60006020820190508181036000830152612d8281612d46565b9050919050565b7f4552433732313a207472616e7366657220746f206e6f6e20455243373231526560008201527f63656976657220696d706c656d656e7465720000000000000000000000000000602082015250565b6000612de5603283612035565b9150612df082612d89565b604082019050919050565b60006020820190508181036000830152612e1481612dd8565b9050919050565b7f4e487b7100000000000000000000000000000000000000000000000000000000600052601260045260246000fd5b6000612e55826120dc565b9150612e60836120dc565b9250828203905081811115612e7857612e77612771565b5b92915050565b600081519050919050565b600082825260208201905092915050565b6000612ea582612e7e565b612eaf8185612e89565b9350612ebf818560208601612046565b612ec881612070565b840191505092915050565b6000608082019050612ee86000830187612171565b612ef56020830186612171565b612f02604083018561225a565b8181036060830152612f148184612e9a565b905095945050505050565b600081519050612f2e81611f9b565b92915050565b600060208284031215612f4a57612f49611f65565b5b6000612f5884828501612f1f565b91505092915050565b7f4552433732313a206d696e7420746f20746865207a65726f2061646472657373600082015250565b6000612f97602083612035565b9150612fa282612f61565b602082019050919050565b60006020820190508181036000830152612fc681612f8a565b9050919050565b7f4552433732313a20746f6b656e20616c7265616479206d696e74656400000000600082015250565b6000613003601c83612035565b915061300e82612fcd565b602082019050919050565b6000602082019050818103600083015261303281612ff6565b905091905056fea264697066735822122078523edd649086a716b85e58345bd3e7aabae32943ae877785ab6279aa27fecf64736f6c63430008110033",
  "linkReferences": {},
  "deployedLinkReferences": {}
}