{
  "_format": "hh-sol-artifact-1",
  "contractName": "JPIG",
  "sourceName": "contracts/jpig.sol",
  "abi": [
    {
      "inputs": [
        {
          "internalType": "uint256",
          "name": "supply",
          "type": "uint256"
        },
        {
          "internalType": "string",
          "name": "baseurl",
          "type": "string"
        }
      ],
      "stateMutability": "nonpayable",
      "type": "constructor"
    },
    {
      "anonymous": false,
      "inputs": [
        {
          "indexed": true,
          "internalType": "address",
          "name": "owner",
          "type": "address"
        },
        {
          "indexed": true,
          "internalType": "address",
          "name": "approved",
          "type": "address"
        },
        {
          "indexed": true,
          "internalType": "uint256",
          "name": "tokenId",
          "type": "uint256"
        }
      ],
      "name": "Approval",
      "type": "event"
    },
    {
      "anonymous": false,
      "inputs": [
        {
          "indexed": true,
          "internalType": "address",
          "name": "owner",
          "type": "address"
        },
        {
          "indexed": true,
          "internalType": "address",
          "name": "operator",
          "type": "address"
        },
        {
          "indexed": false,
          "internalType": "bool",
          "name": "approved",
          "type": "bool"
        }
      ],
      "name": "ApprovalForAll",
      "type": "event"
    },
    {
      "anonymous": false,
      "inputs": [
        {
          "indexed": true,
          "internalType": "address",
          "name": "previousOwner",
          "type": "address"
        },
        {
          "indexed": true,
          "internalType": "address",
          "name": "newOwner",
          "type": "address"
        }
      ],
      "name": "OwnershipTransferred",
      "type": "event"
    },
    {
      "anonymous": false,
      "inputs": [
        {
          "indexed": true,
          "internalType": "address",
          "name": "from",
          "type": "address"
        },
        {
          "indexed": true,
          "internalType": "address",
          "name": "to",
          "type": "address"
        },
        {
          "indexed": true,
          "internalType": "uint256",
          "name": "tokenId",
          "type": "uint256"
        }
      ],
      "name": "Transfer",
      "type": "event"
    },
    {
      "inputs": [
        {
          "internalType": "address",
          "name": "to",
          "type": "address"
        },
        {
          "internalType": "uint256",
          "name": "tokenId",
          "type": "uint256"
        }
      ],
      "name": "approve",
      "outputs": [],
      "stateMutability": "nonpayable",
      "type": "function"
    },
    {
      "inputs": [
        {
          "internalType": "address",
          "name": "owner",
          "type": "address"
        }
      ],
      "name": "balanceOf",
      "outputs": [
        {
          "internalType": "uint256",
          "name": "",
          "type": "uint256"
        }
      ],
      "stateMutability": "view",
      "type": "function"
    },
    {
      "inputs": [
        {
          "internalType": "uint256",
          "name": "tokenId",
          "type": "uint256"
        }
      ],
      "name": "getApproved",
      "outputs": [
        {
          "internalType": "address",
          "name": "",
          "type": "address"
        }
      ],
      "stateMutability": "view",
      "type": "function"
    },
    {
      "inputs": [
        {
          "internalType": "address",
          "name": "owner",
          "type": "address"
        },
        {
          "internalType": "address",
          "name": "operator",
          "type": "address"
        }
      ],
      "name": "isApprovedForAll",
      "outputs": [
        {
          "internalType": "bool",
          "name": "",
          "type": "bool"
        }
      ],
      "stateMutability": "view",
      "type": "function"
    },
    {
      "inputs": [],
      "name": "maxPerWallet",
      "outputs": [
        {
          "internalType": "uint256",
          "name": "",
          "type": "uint256"
        }
      ],
      "stateMutability": "view",
      "type": "function"
    },
    {
      "inputs": [],
      "name": "maxSupply",
      "outputs": [
        {
          "internalType": "uint256",
          "name": "",
          "type": "uint256"
        }
      ],
      "stateMutability": "view",
      "type": "function"
    },
    {
      "inputs": [],
      "name": "mdExtension",
      "outputs": [
        {
          "internalType": "string",
          "name": "",
          "type": "string"
        }
      ],
      "stateMutability": "view",
      "type": "function"
    },
    {
      "inputs": [],
      "name": "mint",
      "outputs": [],
      "stateMutability": "payable",
      "type": "function"
    },
    {
      "inputs": [],
      "name": "minted",
      "outputs": [
        {
          "internalType": "uint256",
          "name": "",
          "type": "uint256"
        }
      ],
      "stateMutability": "view",
      "type": "function"
    },
    {
      "inputs": [],
      "name": "name",
      "outputs": [
        {
          "internalType": "string",
          "name": "",
          "type": "string"
        }
      ],
      "stateMutability": "view",
      "type": "function"
    },
    {
      "inputs": [],
      "name": "owner",
      "outputs": [
        {
          "internalType": "address",
          "name": "",
          "type": "address"
        }
      ],
      "stateMutability": "view",
      "type": "function"
    },
    {
      "inputs": [
        {
          "internalType": "uint256",
          "name": "tokenId",
          "type": "uint256"
        }
      ],
      "name": "ownerOf",
      "outputs": [
        {
          "internalType": "address",
          "name": "",
          "type": "address"
        }
      ],
      "stateMutability": "view",
      "type": "function"
    },
    {
      "inputs": [],
      "name": "renounceOwnership",
      "outputs": [],
      "stateMutability": "nonpayable",
      "type": "function"
    },
    {
      "inputs": [
        {
          "internalType": "address",
          "name": "from",
          "type": "address"
        },
        {
          "internalType": "address",
          "name": "to",
          "type": "address"
        },
        {
          "internalType": "uint256",
          "name": "tokenId",
          "type": "uint256"
        }
      ],
      "name": "safeTransferFrom",
      "outputs": [],
      "stateMutability": "nonpayable",
      "type": "function"
    },
    {
      "inputs": [
        {
          "internalType": "address",
          "name": "from",
          "type": "address"
        },
        {
          "internalType": "address",
          "name": "to",
          "type": "address"
        },
        {
          "internalType": "uint256",
          "name": "tokenId",
          "type": "uint256"
        },
        {
          "internalType": "bytes",
          "name": "data",
          "type": "bytes"
        }
      ],
      "name": "safeTransferFrom",
      "outputs": [],
      "stateMutability": "nonpayable",
      "type": "function"
    },
    {
      "inputs": [
        {
          "internalType": "address",
          "name": "operator",
          "type": "address"
        },
        {
          "internalType": "bool",
          "name": "approved",
          "type": "bool"
        }
      ],
      "name": "setApprovalForAll",
      "outputs": [],
      "stateMutability": "nonpayable",
      "type": "function"
    },
    {
      "inputs": [
        {
          "internalType": "string",
          "name": "baseuri",
          "type": "string"
        }
      ],
      "name": "setNewBaseUri",
      "outputs": [],
      "stateMutability": "nonpayable",
      "type": "function"
    },
    {
      "inputs": [
        {
          "internalType": "bytes4",
          "name": "interfaceId",
          "type": "bytes4"
        }
      ],
      "name": "supportsInterface",
      "outputs": [
        {
          "internalType": "bool",
          "name": "",
          "type": "bool"
        }
      ],
      "stateMutability": "view",
      "type": "function"
    },
    {
      "inputs": [],
      "name": "symbol",
      "outputs": [
        {
          "internalType": "string",
          "name": "",
          "type": "string"
        }
      ],
      "stateMutability": "view",
      "type": "function"
    },
    {
      "inputs": [
        {
          "internalType": "uint256",
          "name": "tokenId",
          "type": "uint256"
        }
      ],
      "name": "tokenURI",
      "outputs": [
        {
          "internalType": "string",
          "name": "",
          "type": "string"
        }
      ],
      "stateMutability": "view",
      "type": "function"
    },
    {
      "inputs": [],
      "name": "totalSupply",
      "outputs": [],
      "stateMutability": "view",
      "type": "function"
    },
    {
      "inputs": [
        {
          "internalType": "address",
          "name": "from",
          "type": "address"
        },
        {
          "internalType": "address",
          "name": "to",
          "type": "address"
        },
        {
          "internalType": "uint256",
          "name": "tokenId",
          "type": "uint256"
        }
      ],
      "name": "transferFrom",
      "outputs": [],
      "stateMutability": "nonpayable",
      "type": "function"
    },
    {
      "inputs": [
        {
          "internalType": "address",
          "name": "newOwner",
          "type": "address"
        }
      ],
      "name": "transferOwnership",
      "outputs": [],
      "stateMutability": "nonpayable",
      "type": "function"
    },
    {
      "inputs": [],
      "name": "wdraw",
      "outputs": [],
      "stateMutability": "nonpayable",
      "type": "function"
    }
  ],
  "bytecode": "0x6080604052601460085560006009556000600a556040518060400160405280600581526020017f2e6a736f6e000000000000000000000000000000000000000000000000000000815250600b9081620000599190620004a6565b503480156200006757600080fd5b5060405162003b8838038062003b8883398181016040528101906200008d919062000722565b6040518060400160405280600c81526020017f4a6163757a7a69205069677300000000000000000000000000000000000000008152506040518060400160405280600581526020017f4a50494753000000000000000000000000000000000000000000000000000000815250620001196200010d6200016060201b60201c565b6200016860201b60201c565b81600190816200012a9190620004a6565b5080600290816200013c9190620004a6565b5050508160078190555080600c9081620001579190620004a6565b50505062000788565b600033905090565b60008060009054906101000a900473ffffffffffffffffffffffffffffffffffffffff169050816000806101000a81548173ffffffffffffffffffffffffffffffffffffffff021916908373ffffffffffffffffffffffffffffffffffffffff1602179055508173ffffffffffffffffffffffffffffffffffffffff168173ffffffffffffffffffffffffffffffffffffffff167f8be0079c531659141344cd1fd0a4f28419497f9722a3daafe3b4186f6b6457e060405160405180910390a35050565b600081519050919050565b7f4e487b7100000000000000000000000000000000000000000000000000000000600052604160045260246000fd5b7f4e487b7100000000000000000000000000000000000000000000000000000000600052602260045260246000fd5b60006002820490506001821680620002ae57607f821691505b602082108103620002c457620002c362000266565b5b50919050565b60008190508160005260206000209050919050565b60006020601f8301049050919050565b600082821b905092915050565b6000600883026200032e7fffffffffffffffffffffffffffffffffffffffffffffffffffffffffffffffff82620002ef565b6200033a8683620002ef565b95508019841693508086168417925050509392505050565b6000819050919050565b6000819050919050565b600062000387620003816200037b8462000352565b6200035c565b62000352565b9050919050565b6000819050919050565b620003a38362000366565b620003bb620003b2826200038e565b848454620002fc565b825550505050565b600090565b620003d2620003c3565b620003df81848462000398565b505050565b5b818110156200040757620003fb600082620003c8565b600181019050620003e5565b5050565b601f82111562000456576200042081620002ca565b6200042b84620002df565b810160208510156200043b578190505b620004536200044a85620002df565b830182620003e4565b50505b505050565b600082821c905092915050565b60006200047b600019846008026200045b565b1980831691505092915050565b600062000496838362000468565b9150826002028217905092915050565b620004b1826200022c565b67ffffffffffffffff811115620004cd57620004cc62000237565b5b620004d9825462000295565b620004e68282856200040b565b600060209050601f8311600181146200051e576000841562000509578287015190505b62000515858262000488565b86555062000585565b601f1984166200052e86620002ca565b60005b82811015620005585784890151825560018201915060208501945060208101905062000531565b8683101562000578578489015162000574601f89168262000468565b8355505b6001600288020188555050505b505050505050565b6000604051905090565b600080fd5b600080fd5b620005ac8162000352565b8114620005b857600080fd5b50565b600081519050620005cc81620005a1565b92915050565b600080fd5b600080fd5b6000601f19601f8301169050919050565b620005f882620005dc565b810181811067ffffffffffffffff821117156200061a576200061962000237565b5b80604052505050565b60006200062f6200058d565b90506200063d8282620005ed565b919050565b600067ffffffffffffffff82111562000660576200065f62000237565b5b6200066b82620005dc565b9050602081019050919050565b60005b83811015620006985780820151818401526020810190506200067b565b60008484015250505050565b6000620006bb620006b58462000642565b62000623565b905082815260208101848484011115620006da57620006d9620005d7565b5b620006e784828562000678565b509392505050565b600082601f830112620007075762000706620005d2565b5b815162000719848260208601620006a4565b91505092915050565b600080604083850312156200073c576200073b62000597565b5b60006200074c85828601620005bb565b925050602083015167ffffffffffffffff81111562000770576200076f6200059c565b5b6200077e85828601620006ef565b9150509250929050565b6133f080620007986000396000f3fe60806040526004361061014b5760003560e01c806370a08231116100b6578063b88d4fde1161006f578063b88d4fde1461044b578063c87b56dd14610474578063ccadfaf2146104b1578063d5abeb01146104c8578063e985e9c5146104f3578063f2fde38b146105305761014b565b806370a082311461034d578063715018a61461038a5780637ba99ac3146103a15780638da5cb5b146103cc57806395d89b41146103f7578063a22cb465146104225761014b565b806323b872dd1161010857806323b872dd1461023f57806342842e0e14610268578063453c2310146102915780634f02c420146102bc578063501fb35c146102e75780636352211e146103105761014b565b806301ffc9a71461015057806306fdde031461018d578063081812fc146101b8578063095ea7b3146101f55780631249c58b1461021e57806318160ddd14610228575b600080fd5b34801561015c57600080fd5b5061017760048036038101906101729190611ff5565b610559565b604051610184919061203d565b60405180910390f35b34801561019957600080fd5b506101a261063b565b6040516101af91906120e8565b60405180910390f35b3480156101c457600080fd5b506101df60048036038101906101da9190612140565b6106cd565b6040516101ec91906121ae565b60405180910390f35b34801561020157600080fd5b5061021c600480360381019061021791906121f5565b610713565b005b61022661082a565b005b34801561023457600080fd5b5061023d6108fe565b005b34801561024b57600080fd5b5061026660048036038101906102619190612235565b610900565b005b34801561027457600080fd5b5061028f600480360381019061028a9190612235565b610960565b005b34801561029d57600080fd5b506102a6610980565b6040516102b39190612297565b60405180910390f35b3480156102c857600080fd5b506102d1610986565b6040516102de9190612297565b60405180910390f35b3480156102f357600080fd5b5061030e600480360381019061030991906123e7565b61098c565b005b34801561031c57600080fd5b5061033760048036038101906103329190612140565b6109a7565b60405161034491906121ae565b60405180910390f35b34801561035957600080fd5b50610374600480360381019061036f9190612430565b610a2d565b6040516103819190612297565b60405180910390f35b34801561039657600080fd5b5061039f610ae4565b005b3480156103ad57600080fd5b506103b6610af8565b6040516103c391906120e8565b60405180910390f35b3480156103d857600080fd5b506103e1610b86565b6040516103ee91906121ae565b60405180910390f35b34801561040357600080fd5b5061040c610baf565b60405161041991906120e8565b60405180910390f35b34801561042e57600080fd5b5061044960048036038101906104449190612489565b610c41565b005b34801561045757600080fd5b50610472600480360381019061046d919061256a565b610c57565b005b34801561048057600080fd5b5061049b60048036038101906104969190612140565b610cb9565b6040516104a891906120e8565b60405180910390f35b3480156104bd57600080fd5b506104c6610d63565b005b3480156104d457600080fd5b506104dd610dc1565b6040516104ea9190612297565b60405180910390f35b3480156104ff57600080fd5b5061051a600480360381019061051591906125ed565b610dc7565b604051610527919061203d565b60405180910390f35b34801561053c57600080fd5b5061055760048036038101906105529190612430565b610e5b565b005b60007f80ac58cd000000000000000000000000000000000000000000000000000000007bffffffffffffffffffffffffffffffffffffffffffffffffffffffff1916827bffffffffffffffffffffffffffffffffffffffffffffffffffffffff1916148061062457507f5b5e139f000000000000000000000000000000000000000000000000000000007bffffffffffffffffffffffffffffffffffffffffffffffffffffffff1916827bffffffffffffffffffffffffffffffffffffffffffffffffffffffff1916145b80610634575061063382610ede565b5b9050919050565b60606001805461064a9061265c565b80601f01602080910402602001604051908101604052809291908181526020018280546106769061265c565b80156106c35780601f10610698576101008083540402835291602001916106c3565b820191906000526020600020905b8154815290600101906020018083116106a657829003601f168201915b5050505050905090565b60006106d882610f48565b6005600083815260200190815260200160002060009054906101000a900473ffffffffffffffffffffffffffffffffffffffff169050919050565b600061071e826109a7565b90508073ffffffffffffffffffffffffffffffffffffffff168373ffffffffffffffffffffffffffffffffffffffff160361078e576040517f08c379a0000000000000000000000000000000000000000000000000000000008152600401610785906126ff565b60405180910390fd5b8073ffffffffffffffffffffffffffffffffffffffff166107ad610f93565b73ffffffffffffffffffffffffffffffffffffffff1614806107dc57506107db816107d6610f93565b610dc7565b5b61081b576040517f08c379a000000000000000000000000000000000000000000000000000000000815260040161081290612791565b60405180910390fd5b6108258383610f9b565b505050565b600754600a5410610870576040517f08c379a0000000000000000000000000000000000000000000000000000000008152600401610867906127fd565b60405180910390fd5b60085461087c33610a2d565b106108bc576040517f08c379a00000000000000000000000000000000000000000000000000000000081526004016108b390612869565b60405180910390fd5b6108c833600954611054565b6001600960008282546108db91906128b8565b925050819055506001600a60008282546108f591906128b8565b92505081905550565b565b61091161090b610f93565b82611072565b610950576040517f08c379a00000000000000000000000000000000000000000000000000000000081526004016109479061295e565b60405180910390fd5b61095b838383611107565b505050565b61097b83838360405180602001604052806000815250610c57565b505050565b60085481565b600a5481565b610994611400565b80600c90816109a39190612b2a565b5050565b6000806109b38361147e565b9050600073ffffffffffffffffffffffffffffffffffffffff168173ffffffffffffffffffffffffffffffffffffffff1603610a24576040517f08c379a0000000000000000000000000000000000000000000000000000000008152600401610a1b90612c48565b60405180910390fd5b80915050919050565b60008073ffffffffffffffffffffffffffffffffffffffff168273ffffffffffffffffffffffffffffffffffffffff1603610a9d576040517f08c379a0000000000000000000000000000000000000000000000000000000008152600401610a9490612cda565b60405180910390fd5b600460008373ffffffffffffffffffffffffffffffffffffffff1673ffffffffffffffffffffffffffffffffffffffff168152602001908152602001600020549050919050565b610aec611400565b610af660006114bb565b565b600b8054610b059061265c565b80601f0160208091040260200160405190810160405280929190818152602001828054610b319061265c565b8015610b7e5780601f10610b5357610100808354040283529160200191610b7e565b820191906000526020600020905b815481529060010190602001808311610b6157829003601f168201915b505050505081565b60008060009054906101000a900473ffffffffffffffffffffffffffffffffffffffff16905090565b606060028054610bbe9061265c565b80601f0160208091040260200160405190810160405280929190818152602001828054610bea9061265c565b8015610c375780601f10610c0c57610100808354040283529160200191610c37565b820191906000526020600020905b815481529060010190602001808311610c1a57829003601f168201915b5050505050905090565b610c53610c4c610f93565b838361157f565b5050565b610c68610c62610f93565b83611072565b610ca7576040517f08c379a0000000000000000000000000000000000000000000000000000000008152600401610c9e9061295e565b60405180910390fd5b610cb3848484846116eb565b50505050565b6060610cc482611747565b610d03576040517f08c379a0000000000000000000000000000000000000000000000000000000008152600401610cfa90612d6c565b60405180910390fd5b6000610d0d611788565b90506000815111610d2d5760405180602001604052806000815250610d5b565b80610d378461181a565b600b604051602001610d4b93929190612e4b565b6040516020818303038152906040525b915050919050565b610d6b611400565b6000610d75610b86565b90508073ffffffffffffffffffffffffffffffffffffffff166108fc479081150290604051600060405180830381858888f19350505050158015610dbd573d6000803e3d6000fd5b5050565b60075481565b6000600660008473ffffffffffffffffffffffffffffffffffffffff1673ffffffffffffffffffffffffffffffffffffffff16815260200190815260200160002060008373ffffffffffffffffffffffffffffffffffffffff1673ffffffffffffffffffffffffffffffffffffffff16815260200190815260200160002060009054906101000a900460ff16905092915050565b610e63611400565b600073ffffffffffffffffffffffffffffffffffffffff168173ffffffffffffffffffffffffffffffffffffffff1603610ed2576040517f08c379a0000000000000000000000000000000000000000000000000000000008152600401610ec990612eee565b60405180910390fd5b610edb816114bb565b50565b60007f01ffc9a7000000000000000000000000000000000000000000000000000000007bffffffffffffffffffffffffffffffffffffffffffffffffffffffff1916827bffffffffffffffffffffffffffffffffffffffffffffffffffffffff1916149050919050565b610f5181611747565b610f90576040517f08c379a0000000000000000000000000000000000000000000000000000000008152600401610f8790612c48565b60405180910390fd5b50565b600033905090565b816005600083815260200190815260200160002060006101000a81548173ffffffffffffffffffffffffffffffffffffffff021916908373ffffffffffffffffffffffffffffffffffffffff160217905550808273ffffffffffffffffffffffffffffffffffffffff1661100e836109a7565b73ffffffffffffffffffffffffffffffffffffffff167f8c5be1e5ebec7d5bd14f71427d1e84f3dd0314c0f7b2291e5b200ac8c7c3b92560405160405180910390a45050565b61106e8282604051806020016040528060008152506118e8565b5050565b60008061107e836109a7565b90508073ffffffffffffffffffffffffffffffffffffffff168473ffffffffffffffffffffffffffffffffffffffff1614806110c057506110bf8185610dc7565b5b806110fe57508373ffffffffffffffffffffffffffffffffffffffff166110e6846106cd565b73ffffffffffffffffffffffffffffffffffffffff16145b91505092915050565b8273ffffffffffffffffffffffffffffffffffffffff16611127826109a7565b73ffffffffffffffffffffffffffffffffffffffff161461117d576040517f08c379a000000000000000000000000000000000000000000000000000000000815260040161117490612f80565b60405180910390fd5b600073ffffffffffffffffffffffffffffffffffffffff168273ffffffffffffffffffffffffffffffffffffffff16036111ec576040517f08c379a00000000000000000000000000000000000000000000000000000000081526004016111e390613012565b60405180910390fd5b6111f98383836001611943565b8273ffffffffffffffffffffffffffffffffffffffff16611219826109a7565b73ffffffffffffffffffffffffffffffffffffffff161461126f576040517f08c379a000000000000000000000000000000000000000000000000000000000815260040161126690612f80565b60405180910390fd5b6005600082815260200190815260200160002060006101000a81549073ffffffffffffffffffffffffffffffffffffffff02191690556001600460008573ffffffffffffffffffffffffffffffffffffffff1673ffffffffffffffffffffffffffffffffffffffff168152602001908152602001600020600082825403925050819055506001600460008473ffffffffffffffffffffffffffffffffffffffff1673ffffffffffffffffffffffffffffffffffffffff16815260200190815260200160002060008282540192505081905550816003600083815260200190815260200160002060006101000a81548173ffffffffffffffffffffffffffffffffffffffff021916908373ffffffffffffffffffffffffffffffffffffffff160217905550808273ffffffffffffffffffffffffffffffffffffffff168473ffffffffffffffffffffffffffffffffffffffff167fddf252ad1be2c89b69c2b068fc378daa952ba7f163c4a11628f55a4df523b3ef60405160405180910390a46113fb8383836001611a69565b505050565b611408610f93565b73ffffffffffffffffffffffffffffffffffffffff16611426610b86565b73ffffffffffffffffffffffffffffffffffffffff161461147c576040517f08c379a00000000000000000000000000000000000000000000000000000000081526004016114739061307e565b60405180910390fd5b565b60006003600083815260200190815260200160002060009054906101000a900473ffffffffffffffffffffffffffffffffffffffff169050919050565b60008060009054906101000a900473ffffffffffffffffffffffffffffffffffffffff169050816000806101000a81548173ffffffffffffffffffffffffffffffffffffffff021916908373ffffffffffffffffffffffffffffffffffffffff1602179055508173ffffffffffffffffffffffffffffffffffffffff168173ffffffffffffffffffffffffffffffffffffffff167f8be0079c531659141344cd1fd0a4f28419497f9722a3daafe3b4186f6b6457e060405160405180910390a35050565b8173ffffffffffffffffffffffffffffffffffffffff168373ffffffffffffffffffffffffffffffffffffffff16036115ed576040517f08c379a00000000000000000000000000000000000000000000000000000000081526004016115e4906130ea565b60405180910390fd5b80600660008573ffffffffffffffffffffffffffffffffffffffff1673ffffffffffffffffffffffffffffffffffffffff16815260200190815260200160002060008473ffffffffffffffffffffffffffffffffffffffff1673ffffffffffffffffffffffffffffffffffffffff16815260200190815260200160002060006101000a81548160ff0219169083151502179055508173ffffffffffffffffffffffffffffffffffffffff168373ffffffffffffffffffffffffffffffffffffffff167f17307eab39ab6107e8899845ad3d59bd9653f200f220920489ca2b5937696c31836040516116de919061203d565b60405180910390a3505050565b6116f6848484611107565b61170284848484611a6f565b611741576040517f08c379a00000000000000000000000000000000000000000000000000000000081526004016117389061317c565b60405180910390fd5b50505050565b60008073ffffffffffffffffffffffffffffffffffffffff166117698361147e565b73ffffffffffffffffffffffffffffffffffffffff1614159050919050565b6060600c80546117979061265c565b80601f01602080910402602001604051908101604052809291908181526020018280546117c39061265c565b80156118105780601f106117e557610100808354040283529160200191611810565b820191906000526020600020905b8154815290600101906020018083116117f357829003601f168201915b5050505050905090565b60606000600161182984611bf6565b01905060008167ffffffffffffffff811115611848576118476122bc565b5b6040519080825280601f01601f19166020018201604052801561187a5781602001600182028036833780820191505090505b509050600082602001820190505b6001156118dd578080600190039150507f3031323334353637383961626364656600000000000000000000000000000000600a86061a8153600a85816118d1576118d061319c565b5b04945060008503611888575b819350505050919050565b6118f28383611d49565b6118ff6000848484611a6f565b61193e576040517f08c379a00000000000000000000000000000000000000000000000000000000081526004016119359061317c565b60405180910390fd5b505050565b6001811115611a6357600073ffffffffffffffffffffffffffffffffffffffff168473ffffffffffffffffffffffffffffffffffffffff16146119d75780600460008673ffffffffffffffffffffffffffffffffffffffff1673ffffffffffffffffffffffffffffffffffffffff16815260200190815260200160002060008282546119cf91906131cb565b925050819055505b600073ffffffffffffffffffffffffffffffffffffffff168373ffffffffffffffffffffffffffffffffffffffff1614611a625780600460008573ffffffffffffffffffffffffffffffffffffffff1673ffffffffffffffffffffffffffffffffffffffff1681526020019081526020016000206000828254611a5a91906128b8565b925050819055505b5b50505050565b50505050565b6000611a908473ffffffffffffffffffffffffffffffffffffffff16611f66565b15611be9578373ffffffffffffffffffffffffffffffffffffffff1663150b7a02611ab9610f93565b8786866040518563ffffffff1660e01b8152600401611adb9493929190613254565b6020604051808303816000875af1925050508015611b1757506040513d601f19601f82011682018060405250810190611b1491906132b5565b60015b611b99573d8060008114611b47576040519150601f19603f3d011682016040523d82523d6000602084013e611b4c565b606091505b506000815103611b91576040517f08c379a0000000000000000000000000000000000000000000000000000000008152600401611b889061317c565b60405180910390fd5b805181602001fd5b63150b7a0260e01b7bffffffffffffffffffffffffffffffffffffffffffffffffffffffff1916817bffffffffffffffffffffffffffffffffffffffffffffffffffffffff191614915050611bee565b600190505b949350505050565b600080600090507a184f03e93ff9f4daa797ed6e38ed64bf6a1f0100000000000000008310611c54577a184f03e93ff9f4daa797ed6e38ed64bf6a1f0100000000000000008381611c4a57611c4961319c565b5b0492506040810190505b6d04ee2d6d415b85acef81000000008310611c91576d04ee2d6d415b85acef81000000008381611c8757611c8661319c565b5b0492506020810190505b662386f26fc100008310611cc057662386f26fc100008381611cb657611cb561319c565b5b0492506010810190505b6305f5e1008310611ce9576305f5e1008381611cdf57611cde61319c565b5b0492506008810190505b6127108310611d0e576127108381611d0457611d0361319c565b5b0492506004810190505b60648310611d315760648381611d2757611d2661319c565b5b0492506002810190505b600a8310611d40576001810190505b80915050919050565b600073ffffffffffffffffffffffffffffffffffffffff168273ffffffffffffffffffffffffffffffffffffffff1603611db8576040517f08c379a0000000000000000000000000000000000000000000000000000000008152600401611daf9061332e565b60405180910390fd5b611dc181611747565b15611e01576040517f08c379a0000000000000000000000000000000000000000000000000000000008152600401611df89061339a565b60405180910390fd5b611e0f600083836001611943565b611e1881611747565b15611e58576040517f08c379a0000000000000000000000000000000000000000000000000000000008152600401611e4f9061339a565b60405180910390fd5b6001600460008473ffffffffffffffffffffffffffffffffffffffff1673ffffffffffffffffffffffffffffffffffffffff16815260200190815260200160002060008282540192505081905550816003600083815260200190815260200160002060006101000a81548173ffffffffffffffffffffffffffffffffffffffff021916908373ffffffffffffffffffffffffffffffffffffffff160217905550808273ffffffffffffffffffffffffffffffffffffffff16600073ffffffffffffffffffffffffffffffffffffffff167fddf252ad1be2c89b69c2b068fc378daa952ba7f163c4a11628f55a4df523b3ef60405160405180910390a4611f62600083836001611a69565b5050565b6000808273ffffffffffffffffffffffffffffffffffffffff163b119050919050565b6000604051905090565b600080fd5b600080fd5b60007fffffffff0000000000000000000000000000000000000000000000000000000082169050919050565b611fd281611f9d565b8114611fdd57600080fd5b50565b600081359050611fef81611fc9565b92915050565b60006020828403121561200b5761200a611f93565b5b600061201984828501611fe0565b91505092915050565b60008115159050919050565b61203781612022565b82525050565b6000602082019050612052600083018461202e565b92915050565b600081519050919050565b600082825260208201905092915050565b60005b83811015612092578082015181840152602081019050612077565b60008484015250505050565b6000601f19601f8301169050919050565b60006120ba82612058565b6120c48185612063565b93506120d4818560208601612074565b6120dd8161209e565b840191505092915050565b6000602082019050818103600083015261210281846120af565b905092915050565b6000819050919050565b61211d8161210a565b811461212857600080fd5b50565b60008135905061213a81612114565b92915050565b60006020828403121561215657612155611f93565b5b60006121648482850161212b565b91505092915050565b600073ffffffffffffffffffffffffffffffffffffffff82169050919050565b60006121988261216d565b9050919050565b6121a88161218d565b82525050565b60006020820190506121c3600083018461219f565b92915050565b6121d28161218d565b81146121dd57600080fd5b50565b6000813590506121ef816121c9565b92915050565b6000806040838503121561220c5761220b611f93565b5b600061221a858286016121e0565b925050602061222b8582860161212b565b9150509250929050565b60008060006060848603121561224e5761224d611f93565b5b600061225c868287016121e0565b935050602061226d868287016121e0565b925050604061227e8682870161212b565b9150509250925092565b6122918161210a565b82525050565b60006020820190506122ac6000830184612288565b92915050565b600080fd5b600080fd5b7f4e487b7100000000000000000000000000000000000000000000000000000000600052604160045260246000fd5b6122f48261209e565b810181811067ffffffffffffffff82111715612313576123126122bc565b5b80604052505050565b6000612326611f89565b905061233282826122eb565b919050565b600067ffffffffffffffff821115612352576123516122bc565b5b61235b8261209e565b9050602081019050919050565b82818337600083830152505050565b600061238a61238584612337565b61231c565b9050828152602081018484840111156123a6576123a56122b7565b5b6123b1848285612368565b509392505050565b600082601f8301126123ce576123cd6122b2565b5b81356123de848260208601612377565b91505092915050565b6000602082840312156123fd576123fc611f93565b5b600082013567ffffffffffffffff81111561241b5761241a611f98565b5b612427848285016123b9565b91505092915050565b60006020828403121561244657612445611f93565b5b6000612454848285016121e0565b91505092915050565b61246681612022565b811461247157600080fd5b50565b6000813590506124838161245d565b92915050565b600080604083850312156124a05761249f611f93565b5b60006124ae858286016121e0565b92505060206124bf85828601612474565b9150509250929050565b600067ffffffffffffffff8211156124e4576124e36122bc565b5b6124ed8261209e565b9050602081019050919050565b600061250d612508846124c9565b61231c565b905082815260208101848484011115612529576125286122b7565b5b612534848285612368565b509392505050565b600082601f830112612551576125506122b2565b5b81356125618482602086016124fa565b91505092915050565b6000806000806080858703121561258457612583611f93565b5b6000612592878288016121e0565b94505060206125a3878288016121e0565b93505060406125b48782880161212b565b925050606085013567ffffffffffffffff8111156125d5576125d4611f98565b5b6125e18782880161253c565b91505092959194509250565b6000806040838503121561260457612603611f93565b5b6000612612858286016121e0565b9250506020612623858286016121e0565b9150509250929050565b7f4e487b7100000000000000000000000000000000000000000000000000000000600052602260045260246000fd5b6000600282049050600182168061267457607f821691505b6020821081036126875761268661262d565b5b50919050565b7f4552433732313a20617070726f76616c20746f2063757272656e74206f776e6560008201527f7200000000000000000000000000000000000000000000000000000000000000602082015250565b60006126e9602183612063565b91506126f48261268d565b604082019050919050565b60006020820190508181036000830152612718816126dc565b9050919050565b7f4552433732313a20617070726f76652063616c6c6572206973206e6f7420746f60008201527f6b656e206f776e6572206f7220617070726f76656420666f7220616c6c000000602082015250565b600061277b603d83612063565b91506127868261271f565b604082019050919050565b600060208201905081810360008301526127aa8161276e565b9050919050565b7f536f6c64206f7574210000000000000000000000000000000000000000000000600082015250565b60006127e7600983612063565b91506127f2826127b1565b602082019050919050565b60006020820190508181036000830152612816816127da565b9050919050565b7f4f6e6c79206f6e65207065722077616c6c657421000000000000000000000000600082015250565b6000612853601483612063565b915061285e8261281d565b602082019050919050565b6000602082019050818103600083015261288281612846565b9050919050565b7f4e487b7100000000000000000000000000000000000000000000000000000000600052601160045260246000fd5b60006128c38261210a565b91506128ce8361210a565b92508282019050808211156128e6576128e5612889565b5b92915050565b7f4552433732313a2063616c6c6572206973206e6f7420746f6b656e206f776e6560008201527f72206f7220617070726f76656400000000000000000000000000000000000000602082015250565b6000612948602d83612063565b9150612953826128ec565b604082019050919050565b600060208201905081810360008301526129778161293b565b9050919050565b60008190508160005260206000209050919050565b60006020601f8301049050919050565b600082821b905092915050565b6000600883026129e07fffffffffffffffffffffffffffffffffffffffffffffffffffffffffffffffff826129a3565b6129ea86836129a3565b95508019841693508086168417925050509392505050565b6000819050919050565b6000612a27612a22612a1d8461210a565b612a02565b61210a565b9050919050565b6000819050919050565b612a4183612a0c565b612a55612a4d82612a2e565b8484546129b0565b825550505050565b600090565b612a6a612a5d565b612a75818484612a38565b505050565b5b81811015612a9957612a8e600082612a62565b600181019050612a7b565b5050565b601f821115612ade57612aaf8161297e565b612ab884612993565b81016020851015612ac7578190505b612adb612ad385612993565b830182612a7a565b50505b505050565b600082821c905092915050565b6000612b0160001984600802612ae3565b1980831691505092915050565b6000612b1a8383612af0565b9150826002028217905092915050565b612b3382612058565b67ffffffffffffffff811115612b4c57612b4b6122bc565b5b612b56825461265c565b612b61828285612a9d565b600060209050601f831160018114612b945760008415612b82578287015190505b612b8c8582612b0e565b865550612bf4565b601f198416612ba28661297e565b60005b82811015612bca57848901518255600182019150602085019450602081019050612ba5565b86831015612be75784890151612be3601f891682612af0565b8355505b6001600288020188555050505b505050505050565b7f4552433732313a20696e76616c696420746f6b656e2049440000000000000000600082015250565b6000612c32601883612063565b9150612c3d82612bfc565b602082019050919050565b60006020820190508181036000830152612c6181612c25565b9050919050565b7f4552433732313a2061646472657373207a65726f206973206e6f74206120766160008201527f6c6964206f776e65720000000000000000000000000000000000000000000000602082015250565b6000612cc4602983612063565b9150612ccf82612c68565b604082019050919050565b60006020820190508181036000830152612cf381612cb7565b9050919050565b7f4552433732314d657461646174613a2055524920717565727920666f72206e6f60008201527f6e6578697374656e7420746f6b656e0000000000000000000000000000000000602082015250565b6000612d56602f83612063565b9150612d6182612cfa565b604082019050919050565b60006020820190508181036000830152612d8581612d49565b9050919050565b600081905092915050565b6000612da282612058565b612dac8185612d8c565b9350612dbc818560208601612074565b80840191505092915050565b60008154612dd58161265c565b612ddf8186612d8c565b94506001821660008114612dfa5760018114612e0f57612e42565b60ff1983168652811515820286019350612e42565b612e188561297e565b60005b83811015612e3a57815481890152600182019150602081019050612e1b565b838801955050505b50505092915050565b6000612e578286612d97565b9150612e638285612d97565b9150612e6f8284612dc8565b9150819050949350505050565b7f4f776e61626c653a206e6577206f776e657220697320746865207a65726f206160008201527f6464726573730000000000000000000000000000000000000000000000000000602082015250565b6000612ed8602683612063565b9150612ee382612e7c565b604082019050919050565b60006020820190508181036000830152612f0781612ecb565b9050919050565b7f4552433732313a207472616e736665722066726f6d20696e636f72726563742060008201527f6f776e6572000000000000000000000000000000000000000000000000000000602082015250565b6000612f6a602583612063565b9150612f7582612f0e565b604082019050919050565b60006020820190508181036000830152612f9981612f5d565b9050919050565b7f4552433732313a207472616e7366657220746f20746865207a65726f2061646460008201527f7265737300000000000000000000000000000000000000000000000000000000602082015250565b6000612ffc602483612063565b915061300782612fa0565b604082019050919050565b6000602082019050818103600083015261302b81612fef565b9050919050565b7f4f776e61626c653a2063616c6c6572206973206e6f7420746865206f776e6572600082015250565b6000613068602083612063565b915061307382613032565b602082019050919050565b600060208201905081810360008301526130978161305b565b9050919050565b7f4552433732313a20617070726f766520746f2063616c6c657200000000000000600082015250565b60006130d4601983612063565b91506130df8261309e565b602082019050919050565b60006020820190508181036000830152613103816130c7565b9050919050565b7f4552433732313a207472616e7366657220746f206e6f6e20455243373231526560008201527f63656976657220696d706c656d656e7465720000000000000000000000000000602082015250565b6000613166603283612063565b91506131718261310a565b604082019050919050565b6000602082019050818103600083015261319581613159565b9050919050565b7f4e487b7100000000000000000000000000000000000000000000000000000000600052601260045260246000fd5b60006131d68261210a565b91506131e18361210a565b92508282039050818111156131f9576131f8612889565b5b92915050565b600081519050919050565b600082825260208201905092915050565b6000613226826131ff565b613230818561320a565b9350613240818560208601612074565b6132498161209e565b840191505092915050565b6000608082019050613269600083018761219f565b613276602083018661219f565b6132836040830185612288565b8181036060830152613295818461321b565b905095945050505050565b6000815190506132af81611fc9565b92915050565b6000602082840312156132cb576132ca611f93565b5b60006132d9848285016132a0565b91505092915050565b7f4552433732313a206d696e7420746f20746865207a65726f2061646472657373600082015250565b6000613318602083612063565b9150613323826132e2565b602082019050919050565b600060208201905081810360008301526133478161330b565b9050919050565b7f4552433732313a20746f6b656e20616c7265616479206d696e74656400000000600082015250565b6000613384601c83612063565b915061338f8261334e565b602082019050919050565b600060208201905081810360008301526133b381613377565b905091905056fea2646970667358221220d95350f7b216b9dd77a50a8a77b56c0911efc19b858ec60482a47eb555dff77d64736f6c63430008110033",
  "linkReferences": {},
  "deployedLinkReferences": {}
}